{
  "_format": "hh-sol-artifact-1",
  "contractName": "NFT",
  "sourceName": "contracts/NFT.sol",
  "abi": [
    {
      "inputs": [
        {
          "internalType": "address",
          "name": "_marketplaceAddress",
          "type": "address"
        }
      ],
      "stateMutability": "nonpayable",
      "type": "constructor"
    },
    {
      "anonymous": false,
      "inputs": [
        {
          "indexed": true,
          "internalType": "address",
          "name": "owner",
          "type": "address"
        },
        {
          "indexed": true,
          "internalType": "address",
          "name": "approved",
          "type": "address"
        },
        {
          "indexed": true,
          "internalType": "uint256",
          "name": "tokenId",
          "type": "uint256"
        }
      ],
      "name": "Approval",
      "type": "event"
    },
    {
      "anonymous": false,
      "inputs": [
        {
          "indexed": true,
          "internalType": "address",
          "name": "owner",
          "type": "address"
        },
        {
          "indexed": true,
          "internalType": "address",
          "name": "operator",
          "type": "address"
        },
        {
          "indexed": false,
          "internalType": "bool",
          "name": "approved",
          "type": "bool"
        }
      ],
      "name": "ApprovalForAll",
      "type": "event"
    },
    {
      "anonymous": false,
      "inputs": [
        {
          "indexed": false,
          "internalType": "uint256",
          "name": "_fromTokenId",
          "type": "uint256"
        },
        {
          "indexed": false,
          "internalType": "uint256",
          "name": "_toTokenId",
          "type": "uint256"
        }
      ],
      "name": "BatchMetadataUpdate",
      "type": "event"
    },
    {
      "anonymous": false,
      "inputs": [
        {
          "indexed": false,
          "internalType": "uint256",
          "name": "_tokenId",
          "type": "uint256"
        }
      ],
      "name": "MetadataUpdate",
      "type": "event"
    },
    {
      "anonymous": false,
      "inputs": [
        {
          "indexed": true,
          "internalType": "uint256",
          "name": "tokenId",
          "type": "uint256"
        },
        {
          "indexed": false,
          "internalType": "string",
          "name": "tokenURI",
          "type": "string"
        },
        {
          "indexed": false,
          "internalType": "address",
          "name": "marketplaceAddress",
          "type": "address"
        }
      ],
      "name": "TokenMinted",
      "type": "event"
    },
    {
      "anonymous": false,
      "inputs": [
        {
          "indexed": true,
          "internalType": "address",
          "name": "from",
          "type": "address"
        },
        {
          "indexed": true,
          "internalType": "address",
          "name": "to",
          "type": "address"
        },
        {
          "indexed": true,
          "internalType": "uint256",
          "name": "tokenId",
          "type": "uint256"
        }
      ],
      "name": "Transfer",
      "type": "event"
    },
    {
      "inputs": [
        {
          "internalType": "address",
          "name": "to",
          "type": "address"
        },
        {
          "internalType": "uint256",
          "name": "tokenId",
          "type": "uint256"
        }
      ],
      "name": "approve",
      "outputs": [],
      "stateMutability": "nonpayable",
      "type": "function"
    },
    {
      "inputs": [
        {
          "internalType": "address",
          "name": "owner",
          "type": "address"
        }
      ],
      "name": "balanceOf",
      "outputs": [
        {
          "internalType": "uint256",
          "name": "",
          "type": "uint256"
        }
      ],
      "stateMutability": "view",
      "type": "function"
    },
    {
      "inputs": [
        {
          "internalType": "uint256",
          "name": "tokenId",
          "type": "uint256"
        }
      ],
      "name": "getApproved",
      "outputs": [
        {
          "internalType": "address",
          "name": "",
          "type": "address"
        }
      ],
      "stateMutability": "view",
      "type": "function"
    },
    {
      "inputs": [
        {
          "internalType": "uint256",
          "name": "tokenId",
          "type": "uint256"
        }
      ],
      "name": "getTokenCreatorById",
      "outputs": [
        {
          "internalType": "address",
          "name": "",
          "type": "address"
        }
      ],
      "stateMutability": "view",
      "type": "function"
    },
    {
      "inputs": [],
      "name": "getTokensCreatedByMe",
      "outputs": [
        {
          "internalType": "uint256[]",
          "name": "",
          "type": "uint256[]"
        }
      ],
      "stateMutability": "view",
      "type": "function"
    },
    {
      "inputs": [],
      "name": "getTokensOwnedByMe",
      "outputs": [
        {
          "internalType": "uint256[]",
          "name": "",
          "type": "uint256[]"
        }
      ],
      "stateMutability": "view",
      "type": "function"
    },
    {
      "inputs": [
        {
          "internalType": "address",
          "name": "owner",
          "type": "address"
        },
        {
          "internalType": "address",
          "name": "operator",
          "type": "address"
        }
      ],
      "name": "isApprovedForAll",
      "outputs": [
        {
          "internalType": "bool",
          "name": "",
          "type": "bool"
        }
      ],
      "stateMutability": "view",
      "type": "function"
    },
    {
      "inputs": [
        {
          "internalType": "string",
          "name": "tokenURI",
          "type": "string"
        }
      ],
      "name": "mintToken",
      "outputs": [
        {
          "internalType": "uint256",
          "name": "",
          "type": "uint256"
        }
      ],
      "stateMutability": "nonpayable",
      "type": "function"
    },
    {
      "inputs": [],
      "name": "name",
      "outputs": [
        {
          "internalType": "string",
          "name": "",
          "type": "string"
        }
      ],
      "stateMutability": "view",
      "type": "function"
    },
    {
      "inputs": [
        {
          "internalType": "uint256",
          "name": "tokenId",
          "type": "uint256"
        }
      ],
      "name": "ownerOf",
      "outputs": [
        {
          "internalType": "address",
          "name": "",
          "type": "address"
        }
      ],
      "stateMutability": "view",
      "type": "function"
    },
    {
      "inputs": [
        {
          "internalType": "address",
          "name": "from",
          "type": "address"
        },
        {
          "internalType": "address",
          "name": "to",
          "type": "address"
        },
        {
          "internalType": "uint256",
          "name": "tokenId",
          "type": "uint256"
        }
      ],
      "name": "safeTransferFrom",
      "outputs": [],
      "stateMutability": "nonpayable",
      "type": "function"
    },
    {
      "inputs": [
        {
          "internalType": "address",
          "name": "from",
          "type": "address"
        },
        {
          "internalType": "address",
          "name": "to",
          "type": "address"
        },
        {
          "internalType": "uint256",
          "name": "tokenId",
          "type": "uint256"
        },
        {
          "internalType": "bytes",
          "name": "data",
          "type": "bytes"
        }
      ],
      "name": "safeTransferFrom",
      "outputs": [],
      "stateMutability": "nonpayable",
      "type": "function"
    },
    {
      "inputs": [
        {
          "internalType": "address",
          "name": "operator",
          "type": "address"
        },
        {
          "internalType": "bool",
          "name": "approved",
          "type": "bool"
        }
      ],
      "name": "setApprovalForAll",
      "outputs": [],
      "stateMutability": "nonpayable",
      "type": "function"
    },
    {
      "inputs": [
        {
          "internalType": "bytes4",
          "name": "interfaceId",
          "type": "bytes4"
        }
      ],
      "name": "supportsInterface",
      "outputs": [
        {
          "internalType": "bool",
          "name": "",
          "type": "bool"
        }
      ],
      "stateMutability": "view",
      "type": "function"
    },
    {
      "inputs": [],
      "name": "symbol",
      "outputs": [
        {
          "internalType": "string",
          "name": "",
          "type": "string"
        }
      ],
      "stateMutability": "view",
      "type": "function"
    },
    {
      "inputs": [
        {
          "internalType": "uint256",
          "name": "tokenId",
          "type": "uint256"
        }
      ],
      "name": "tokenURI",
      "outputs": [
        {
          "internalType": "string",
          "name": "",
          "type": "string"
        }
      ],
      "stateMutability": "view",
      "type": "function"
    },
    {
      "inputs": [
        {
          "internalType": "address",
          "name": "from",
          "type": "address"
        },
        {
          "internalType": "address",
          "name": "to",
          "type": "address"
        },
        {
          "internalType": "uint256",
          "name": "tokenId",
          "type": "uint256"
        }
      ],
      "name": "transferFrom",
      "outputs": [],
      "stateMutability": "nonpayable",
      "type": "function"
    }
  ],
  "bytecode": "0x60806040523480156200001157600080fd5b5060405162001bd838038062001bd8833981016040819052620000349162000165565b604080518082018252600781526604d61726b4b6f760cc1b6020808301918252835180850190945260048452634d41524b60e01b9084015281519192916200007f91600091620000bf565b50805162000095906001906020840190620000bf565b5050600880546001600160a01b0319166001600160a01b03939093169290921790915550620001d2565b828054620000cd9062000195565b90600052602060002090601f016020900481019282620000f157600085556200013c565b82601f106200010c57805160ff19168380011785556200013c565b828001600101855582156200013c579182015b828111156200013c5782518255916020019190600101906200011f565b506200014a9291506200014e565b5090565b5b808211156200014a57600081556001016200014f565b60006020828403121562000177578081fd5b81516001600160a01b03811681146200018e578182fd5b9392505050565b600181811c90821680620001aa57607f821691505b60208210811415620001cc57634e487b7160e01b600052602260045260246000fd5b50919050565b6119f680620001e26000396000f3fe608060405234801561001057600080fd5b506004361061010b5760003560e01c80635ba37742116100a257806395d89b411161007157806395d89b4114610240578063a22cb46514610248578063b88d4fde1461025b578063c87b56dd1461026e578063e985e9c51461028157600080fd5b80635ba37742146101e95780636352211e146101f157806370a0823114610204578063867d33971461021757600080fd5b80630a989d9c116100de5780630a989d9c1461018d57806323b872dd146101a257806333eba49a146101b557806342842e0e146101d657600080fd5b806301ffc9a71461011057806306fdde0314610138578063081812fc1461014d578063095ea7b314610178575b600080fd5b61012361011e366004611651565b6102bd565b60405190151581526020015b60405180910390f35b6101406102e8565b60405161012f91906117c3565b61016061015b3660046116cf565b61037a565b6040516001600160a01b03909116815260200161012f565b61018b610186366004611628565b6103a1565b005b6101956104bc565b60405161012f919061177f565b61018b6101b036600461153a565b6105bd565b6101c86101c3366004611689565b6105ee565b60405190815260200161012f565b61018b6101e436600461153a565b6106a3565b6101956106be565b6101606101ff3660046116cf565b610811565b6101c86102123660046114ee565b610871565b6101606102253660046116cf565b6000908152600960205260409020546001600160a01b031690565b6101406108f7565b61018b6102563660046115ee565b610906565b61018b610269366004611575565b610915565b61014061027c3660046116cf565b61094d565b61012361028f366004611508565b6001600160a01b03918216600090815260056020908152604080832093909416825291909152205460ff1690565b60006001600160e01b03198216632483248360e11b14806102e257506102e282610a5e565b92915050565b6060600080546102f790611928565b80601f016020809104026020016040519081016040528092919081815260200182805461032390611928565b80156103705780601f1061034557610100808354040283529160200191610370565b820191906000526020600020905b81548152906001019060200180831161035357829003601f168201915b5050505050905090565b600061038582610aae565b506000908152600460205260409020546001600160a01b031690565b60006103ac82610811565b9050806001600160a01b0316836001600160a01b0316141561041f5760405162461bcd60e51b815260206004820152602160248201527f4552433732313a20617070726f76616c20746f2063757272656e74206f776e656044820152603960f91b60648201526084015b60405180910390fd5b336001600160a01b038216148061043b575061043b813361028f565b6104ad5760405162461bcd60e51b815260206004820152603d60248201527f4552433732313a20617070726f76652063616c6c6572206973206e6f7420746f60448201527f6b656e206f776e6572206f7220617070726f76656420666f7220616c6c0000006064820152608401610416565b6104b78383610b10565b505050565b606060006104c960075490565b905060006104d633610871565b905060008167ffffffffffffffff81111561050157634e487b7160e01b600052604160045260246000fd5b60405190808252806020026020018201604052801561052a578160200160208202803683370190505b5090506000805b848110156105b35760006105468260016118e4565b90503361055282610811565b6001600160a01b03161461056657506105a1565b8084848151811061058757634e487b7160e01b600052603260045260246000fd5b602090810291909101015261059d6001846118e4565b9250505b806105ab81611963565b915050610531565b5090949350505050565b6105c73382610b7e565b6105e35760405162461bcd60e51b815260040161041690611800565b6104b7838383610bfc565b60006105fe600780546001019055565b600061060960075490565b90506106153382610d60565b600081815260096020526040902080546001600160a01b0319163317905561063d8184610eeb565b600854610654906001600160a01b03166001610906565b60085460405182917f9ef9d09a98563c827f651a028105395cc17f94ef23eb26b70d241439386a62f4916106959187916001600160a01b03909116906117d6565b60405180910390a292915050565b6104b783838360405180602001604052806000815250610915565b606060006106cb60075490565b90506000805b8281101561072e5760006106e68260016118e4565b6000818152600960205260409020549091506001600160a01b0316331461070d575061071c565b6107186001846118e4565b9250505b8061072681611963565b9150506106d1565b5060008167ffffffffffffffff81111561075857634e487b7160e01b600052604160045260246000fd5b604051908082528060200260200182016040528015610781578160200160208202803683370190505b5090506000805b848110156105b357600061079d8260016118e4565b6000818152600960205260409020549091506001600160a01b031633146107c457506107ff565b808484815181106107e557634e487b7160e01b600052603260045260246000fd5b60209081029190910101526107fb6001846118e4565b9250505b8061080981611963565b915050610788565b6000818152600260205260408120546001600160a01b0316806102e25760405162461bcd60e51b8152602060048201526018602482015277115490cdcc8c4e881a5b9d985b1a59081d1bdad95b88125160421b6044820152606401610416565b60006001600160a01b0382166108db5760405162461bcd60e51b815260206004820152602960248201527f4552433732313a2061646472657373207a65726f206973206e6f7420612076616044820152683634b21037bbb732b960b91b6064820152608401610416565b506001600160a01b031660009081526003602052604090205490565b6060600180546102f790611928565b610911338383610fbd565b5050565b61091f3383610b7e565b61093b5760405162461bcd60e51b815260040161041690611800565b6109478484848461108c565b50505050565b606061095882610aae565b6000828152600660205260408120805461097190611928565b80601f016020809104026020016040519081016040528092919081815260200182805461099d90611928565b80156109ea5780601f106109bf576101008083540402835291602001916109ea565b820191906000526020600020905b8154815290600101906020018083116109cd57829003601f168201915b505050505090506000610a0860408051602081019091526000815290565b9050805160001415610a1b575092915050565b815115610a4d578082604051602001610a35929190611713565b60405160208183030381529060405292505050919050565b610a56846110bf565b949350505050565b60006001600160e01b031982166380ac58cd60e01b1480610a8f57506001600160e01b03198216635b5e139f60e01b145b806102e257506301ffc9a760e01b6001600160e01b03198316146102e2565b6000818152600260205260409020546001600160a01b0316610b0d5760405162461bcd60e51b8152602060048201526018602482015277115490cdcc8c4e881a5b9d985b1a59081d1bdad95b88125160421b6044820152606401610416565b50565b600081815260046020526040902080546001600160a01b0319166001600160a01b0384169081179091558190610b4582610811565b6001600160a01b03167f8c5be1e5ebec7d5bd14f71427d1e84f3dd0314c0f7b2291e5b200ac8c7c3b92560405160405180910390a45050565b600080610b8a83610811565b9050806001600160a01b0316846001600160a01b03161480610bd157506001600160a01b0380821660009081526005602090815260408083209388168352929052205460ff165b80610a565750836001600160a01b0316610bea8461037a565b6001600160a01b031614949350505050565b826001600160a01b0316610c0f82610811565b6001600160a01b031614610c355760405162461bcd60e51b81526004016104169061189f565b6001600160a01b038216610c975760405162461bcd60e51b8152602060048201526024808201527f4552433732313a207472616e7366657220746f20746865207a65726f206164646044820152637265737360e01b6064820152608401610416565b826001600160a01b0316610caa82610811565b6001600160a01b031614610cd05760405162461bcd60e51b81526004016104169061189f565b600081815260046020908152604080832080546001600160a01b03199081169091556001600160a01b0387811680865260038552838620805460001901905590871680865283862080546001019055868652600290945282852080549092168417909155905184937fddf252ad1be2c89b69c2b068fc378daa952ba7f163c4a11628f55a4df523b3ef91a4505050565b6001600160a01b038216610db65760405162461bcd60e51b815260206004820181905260248201527f4552433732313a206d696e7420746f20746865207a65726f20616464726573736044820152606401610416565b6000818152600260205260409020546001600160a01b031615610e1b5760405162461bcd60e51b815260206004820152601c60248201527f4552433732313a20746f6b656e20616c7265616479206d696e746564000000006044820152606401610416565b6000818152600260205260409020546001600160a01b031615610e805760405162461bcd60e51b815260206004820152601c60248201527f4552433732313a20746f6b656e20616c7265616479206d696e746564000000006044820152606401610416565b6001600160a01b038216600081815260036020908152604080832080546001019055848352600290915280822080546001600160a01b0319168417905551839291907fddf252ad1be2c89b69c2b068fc378daa952ba7f163c4a11628f55a4df523b3ef908290a45050565b6000828152600260205260409020546001600160a01b0316610f665760405162461bcd60e51b815260206004820152602e60248201527f45524337323155524953746f726167653a2055524920736574206f66206e6f6e60448201526d32bc34b9ba32b73a103a37b5b2b760911b6064820152608401610416565b60008281526006602090815260409091208251610f85928401906113c3565b506040518281527ff8e1a15aba9398e019f0b49df1a4fde98ee17ae345cb5f6b5e2c27f5033e8ce79060200160405180910390a15050565b816001600160a01b0316836001600160a01b0316141561101f5760405162461bcd60e51b815260206004820152601960248201527f4552433732313a20617070726f766520746f2063616c6c6572000000000000006044820152606401610416565b6001600160a01b03838116600081815260056020908152604080832094871680845294825291829020805460ff191686151590811790915591519182527f17307eab39ab6107e8899845ad3d59bd9653f200f220920489ca2b5937696c31910160405180910390a3505050565b611097848484610bfc565b6110a384848484611133565b6109475760405162461bcd60e51b81526004016104169061184d565b60606110ca82610aae565b60006110e160408051602081019091526000815290565b90506000815111611101576040518060200160405280600081525061112c565b8061110b84611240565b60405160200161111c929190611713565b6040516020818303038152906040525b9392505050565b60006001600160a01b0384163b1561123557604051630a85bd0160e11b81526001600160a01b0385169063150b7a0290611177903390899088908890600401611742565b602060405180830381600087803b15801561119157600080fd5b505af19250505080156111c1575060408051601f3d908101601f191682019092526111be9181019061166d565b60015b61121b573d8080156111ef576040519150601f19603f3d011682016040523d82523d6000602084013e6111f4565b606091505b5080516112135760405162461bcd60e51b81526004016104169061184d565b805181602001fd5b6001600160e01b031916630a85bd0160e11b149050610a56565b506001949350505050565b6060600061124d836112eb565b600101905060008167ffffffffffffffff81111561127b57634e487b7160e01b600052604160045260246000fd5b6040519080825280601f01601f1916602001820160405280156112a5576020820181803683370190505b5090508181016020015b600019016f181899199a1a9b1b9c1cb0b131b232b360811b600a86061a8153600a85049450846112de576112e3565b6112af565b509392505050565b60008072184f03e93ff9f4daa797ed6e38ed64bf6a1f0160401b831061132a5772184f03e93ff9f4daa797ed6e38ed64bf6a1f0160401b830492506040015b6d04ee2d6d415b85acef81000000008310611356576d04ee2d6d415b85acef8100000000830492506020015b662386f26fc10000831061137457662386f26fc10000830492506010015b6305f5e100831061138c576305f5e100830492506008015b61271083106113a057612710830492506004015b606483106113b2576064830492506002015b600a83106102e25760010192915050565b8280546113cf90611928565b90600052602060002090601f0160209004810192826113f15760008555611437565b82601f1061140a57805160ff1916838001178555611437565b82800160010185558215611437579182015b8281111561143757825182559160200191906001019061141c565b50611443929150611447565b5090565b5b808211156114435760008155600101611448565b600067ffffffffffffffff8084111561147757611477611994565b604051601f8501601f19908116603f0116810190828211818310171561149f5761149f611994565b816040528093508581528686860111156114b857600080fd5b858560208301376000602087830101525050509392505050565b80356001600160a01b03811681146114e957600080fd5b919050565b6000602082840312156114ff578081fd5b61112c826114d2565b6000806040838503121561151a578081fd5b611523836114d2565b9150611531602084016114d2565b90509250929050565b60008060006060848603121561154e578081fd5b611557846114d2565b9250611565602085016114d2565b9150604084013590509250925092565b6000806000806080858703121561158a578081fd5b611593856114d2565b93506115a1602086016114d2565b925060408501359150606085013567ffffffffffffffff8111156115c3578182fd5b8501601f810187136115d3578182fd5b6115e28782356020840161145c565b91505092959194509250565b60008060408385031215611600578182fd5b611609836114d2565b91506020830135801515811461161d578182fd5b809150509250929050565b6000806040838503121561163a578182fd5b611643836114d2565b946020939093013593505050565b600060208284031215611662578081fd5b813561112c816119aa565b60006020828403121561167e578081fd5b815161112c816119aa565b60006020828403121561169a578081fd5b813567ffffffffffffffff8111156116b0578182fd5b8201601f810184136116c0578182fd5b610a568482356020840161145c565b6000602082840312156116e0578081fd5b5035919050565b600081518084526116ff8160208601602086016118fc565b601f01601f19169290920160200192915050565b600083516117258184602088016118fc565b8351908301906117398183602088016118fc565b01949350505050565b6001600160a01b0385811682528416602082015260408101839052608060608201819052600090611775908301846116e7565b9695505050505050565b6020808252825182820181905260009190848201906040850190845b818110156117b75783518352928401929184019160010161179b565b50909695505050505050565b60208152600061112c60208301846116e7565b6040815260006117e960408301856116e7565b905060018060a01b03831660208301529392505050565b6020808252602d908201527f4552433732313a2063616c6c6572206973206e6f7420746f6b656e206f776e6560408201526c1c881bdc88185c1c1c9bdd9959609a1b606082015260800190565b60208082526032908201527f4552433732313a207472616e7366657220746f206e6f6e20455243373231526560408201527131b2b4bb32b91034b6b83632b6b2b73a32b960711b606082015260800190565b60208082526025908201527f4552433732313a207472616e736665722066726f6d20696e636f72726563742060408201526437bbb732b960d91b606082015260800190565b600082198211156118f7576118f761197e565b500190565b60005b838110156119175781810151838201526020016118ff565b838111156109475750506000910152565b600181811c9082168061193c57607f821691505b6020821081141561195d57634e487b7160e01b600052602260045260246000fd5b50919050565b60006000198214156119775761197761197e565b5060010190565b634e487b7160e01b600052601160045260246000fd5b634e487b7160e01b600052604160045260246000fd5b6001600160e01b031981168114610b0d57600080fdfea264697066735822122098a3b1ea2ffaa293c60e7fe7bd4ddeabc5b702219cbdfde1efb66904da00366b64736f6c63430008040033",
  "linkReferences": {},
  "deployedLinkReferences": {}
}