{
  "_format": "hh-sol-artifact-1",
  "contractName": "Marketplace",
  "sourceName": "contracts/Marketplace.sol",
  "abi": [
    {
      "inputs": [],
      "stateMutability": "nonpayable",
      "type": "constructor"
    },
    {
      "anonymous": false,
      "inputs": [
        {
          "indexed": true,
          "internalType": "uint256",
          "name": "marketItemId",
          "type": "uint256"
        },
        {
          "indexed": true,
          "internalType": "address",
          "name": "nftContract",
          "type": "address"
        },
        {
          "indexed": true,
          "internalType": "uint256",
          "name": "tokenId",
          "type": "uint256"
        },
        {
          "indexed": false,
          "internalType": "address",
          "name": "creator",
          "type": "address"
        },
        {
          "indexed": false,
          "internalType": "address",
          "name": "seller",
          "type": "address"
        },
        {
          "indexed": false,
          "internalType": "address",
          "name": "owner",
          "type": "address"
        },
        {
          "indexed": false,
          "internalType": "uint256",
          "name": "price",
          "type": "uint256"
        },
        {
          "indexed": false,
          "internalType": "bool",
          "name": "sold",
          "type": "bool"
        },
        {
          "indexed": false,
          "internalType": "bool",
          "name": "canceled",
          "type": "bool"
        }
      ],
      "name": "MarketItemCreated",
      "type": "event"
    },
    {
      "inputs": [
        {
          "internalType": "address",
          "name": "nftContractAddress",
          "type": "address"
        },
        {
          "internalType": "uint256",
          "name": "marketItemId",
          "type": "uint256"
        }
      ],
      "name": "cancelMarketItem",
      "outputs": [],
      "stateMutability": "payable",
      "type": "function"
    },
    {
      "inputs": [
        {
          "internalType": "address",
          "name": "nftContractAddress",
          "type": "address"
        },
        {
          "internalType": "uint256",
          "name": "tokenId",
          "type": "uint256"
        },
        {
          "internalType": "uint256",
          "name": "price",
          "type": "uint256"
        }
      ],
      "name": "createMarketItem",
      "outputs": [
        {
          "internalType": "uint256",
          "name": "",
          "type": "uint256"
        }
      ],
      "stateMutability": "payable",
      "type": "function"
    },
    {
      "inputs": [
        {
          "internalType": "address",
          "name": "nftContractAddress",
          "type": "address"
        },
        {
          "internalType": "uint256",
          "name": "marketItemId",
          "type": "uint256"
        }
      ],
      "name": "createMarketSale",
      "outputs": [],
      "stateMutability": "payable",
      "type": "function"
    },
    {
      "inputs": [],
      "name": "fetchAvailableMarketItems",
      "outputs": [
        {
          "components": [
            {
              "internalType": "uint256",
              "name": "marketItemId",
              "type": "uint256"
            },
            {
              "internalType": "address",
              "name": "nftContractAddress",
              "type": "address"
            },
            {
              "internalType": "uint256",
              "name": "tokenId",
              "type": "uint256"
            },
            {
              "internalType": "address payable",
              "name": "creator",
              "type": "address"
            },
            {
              "internalType": "address payable",
              "name": "seller",
              "type": "address"
            },
            {
              "internalType": "address payable",
              "name": "owner",
              "type": "address"
            },
            {
              "internalType": "uint256",
              "name": "price",
              "type": "uint256"
            },
            {
              "internalType": "bool",
              "name": "sold",
              "type": "bool"
            },
            {
              "internalType": "bool",
              "name": "canceled",
              "type": "bool"
            }
          ],
          "internalType": "struct Marketplace.MarketItem[]",
          "name": "",
          "type": "tuple[]"
        }
      ],
      "stateMutability": "view",
      "type": "function"
    },
    {
      "inputs": [
        {
          "internalType": "string",
          "name": "_addressProperty",
          "type": "string"
        }
      ],
      "name": "fetchMarketItemsByAddressProperty",
      "outputs": [
        {
          "components": [
            {
              "internalType": "uint256",
              "name": "marketItemId",
              "type": "uint256"
            },
            {
              "internalType": "address",
              "name": "nftContractAddress",
              "type": "address"
            },
            {
              "internalType": "uint256",
              "name": "tokenId",
              "type": "uint256"
            },
            {
              "internalType": "address payable",
              "name": "creator",
              "type": "address"
            },
            {
              "internalType": "address payable",
              "name": "seller",
              "type": "address"
            },
            {
              "internalType": "address payable",
              "name": "owner",
              "type": "address"
            },
            {
              "internalType": "uint256",
              "name": "price",
              "type": "uint256"
            },
            {
              "internalType": "bool",
              "name": "sold",
              "type": "bool"
            },
            {
              "internalType": "bool",
              "name": "canceled",
              "type": "bool"
            }
          ],
          "internalType": "struct Marketplace.MarketItem[]",
          "name": "",
          "type": "tuple[]"
        }
      ],
      "stateMutability": "view",
      "type": "function"
    },
    {
      "inputs": [],
      "name": "fetchOwnedMarketItems",
      "outputs": [
        {
          "components": [
            {
              "internalType": "uint256",
              "name": "marketItemId",
              "type": "uint256"
            },
            {
              "internalType": "address",
              "name": "nftContractAddress",
              "type": "address"
            },
            {
              "internalType": "uint256",
              "name": "tokenId",
              "type": "uint256"
            },
            {
              "internalType": "address payable",
              "name": "creator",
              "type": "address"
            },
            {
              "internalType": "address payable",
              "name": "seller",
              "type": "address"
            },
            {
              "internalType": "address payable",
              "name": "owner",
              "type": "address"
            },
            {
              "internalType": "uint256",
              "name": "price",
              "type": "uint256"
            },
            {
              "internalType": "bool",
              "name": "sold",
              "type": "bool"
            },
            {
              "internalType": "bool",
              "name": "canceled",
              "type": "bool"
            }
          ],
          "internalType": "struct Marketplace.MarketItem[]",
          "name": "",
          "type": "tuple[]"
        }
      ],
      "stateMutability": "view",
      "type": "function"
    },
    {
      "inputs": [],
      "name": "fetchSellingMarketItems",
      "outputs": [
        {
          "components": [
            {
              "internalType": "uint256",
              "name": "marketItemId",
              "type": "uint256"
            },
            {
              "internalType": "address",
              "name": "nftContractAddress",
              "type": "address"
            },
            {
              "internalType": "uint256",
              "name": "tokenId",
              "type": "uint256"
            },
            {
              "internalType": "address payable",
              "name": "creator",
              "type": "address"
            },
            {
              "internalType": "address payable",
              "name": "seller",
              "type": "address"
            },
            {
              "internalType": "address payable",
              "name": "owner",
              "type": "address"
            },
            {
              "internalType": "uint256",
              "name": "price",
              "type": "uint256"
            },
            {
              "internalType": "bool",
              "name": "sold",
              "type": "bool"
            },
            {
              "internalType": "bool",
              "name": "canceled",
              "type": "bool"
            }
          ],
          "internalType": "struct Marketplace.MarketItem[]",
          "name": "",
          "type": "tuple[]"
        }
      ],
      "stateMutability": "view",
      "type": "function"
    },
    {
      "inputs": [
        {
          "internalType": "uint256",
          "name": "tokenId",
          "type": "uint256"
        }
      ],
      "name": "getLatestMarketItemByTokenId",
      "outputs": [
        {
          "components": [
            {
              "internalType": "uint256",
              "name": "marketItemId",
              "type": "uint256"
            },
            {
              "internalType": "address",
              "name": "nftContractAddress",
              "type": "address"
            },
            {
              "internalType": "uint256",
              "name": "tokenId",
              "type": "uint256"
            },
            {
              "internalType": "address payable",
              "name": "creator",
              "type": "address"
            },
            {
              "internalType": "address payable",
              "name": "seller",
              "type": "address"
            },
            {
              "internalType": "address payable",
              "name": "owner",
              "type": "address"
            },
            {
              "internalType": "uint256",
              "name": "price",
              "type": "uint256"
            },
            {
              "internalType": "bool",
              "name": "sold",
              "type": "bool"
            },
            {
              "internalType": "bool",
              "name": "canceled",
              "type": "bool"
            }
          ],
          "internalType": "struct Marketplace.MarketItem",
          "name": "",
          "type": "tuple"
        },
        {
          "internalType": "bool",
          "name": "",
          "type": "bool"
        }
      ],
      "stateMutability": "view",
      "type": "function"
    },
    {
      "inputs": [],
      "name": "getListingFee",
      "outputs": [
        {
          "internalType": "uint256",
          "name": "",
          "type": "uint256"
        }
      ],
      "stateMutability": "view",
      "type": "function"
    }
  ],
  "bytecode": "0x6080604052669fdf42f6e4800060055534801561001b57600080fd5b506001600055600480546001600160a01b0319163317905561146a806100426000396000f3fe6080604052600436106100865760003560e01c80636f9b4920116100595780636f9b492014610101578063b3e3c42f1461012f578063b8fe6abe14610144578063c23b139e14610159578063cd90fdf41461016c57600080fd5b80630203c8231461008b5780630e01c969146100b65780634cf2a069146100cb57806358eb2df5146100e0575b600080fd5b34801561009757600080fd5b506100a061018c565b6040516100ad91906112e8565b60405180910390f35b3480156100c257600080fd5b506100a06101b9565b3480156100d757600080fd5b506100a0610376565b6100f36100ee366004611127565b61039f565b6040519081526020016100ad565b34801561010d57600080fd5b5061012161011c366004611205565b610783565b6040516100ad929190611370565b61014261013d3660046110fc565b61086f565b005b34801561015057600080fd5b506005546100f3565b6101426101673660046110fc565b6109ed565b34801561017857600080fd5b506100a061018736600461115b565b610ba5565b60606101b46040518060400160405280600581526020016437bbb732b960d91b815250610ba5565b905090565b606060006101c660015490565b905060006101d360025490565b905060006101e060035490565b90506000816101ef84866113a7565b6101f991906113a7565b905060008167ffffffffffffffff81111561022457634e487b7160e01b600052604160045260246000fd5b60405190808252806020026020018201604052801561025d57816020015b61024a611094565b8152602001906001900390816102425790505b5090506000805b8681101561036a57600060068161027c84600161138f565b815260208082019290925260409081016000208151610120810183528154815260018201546001600160a01b0390811694820194909452600282015492810192909252600381015483166060830152600481015483166080830152600581015490921660a08201819052600683015460c083015260079092015460ff808216151560e0840152610100918290041615159082015291501561031d5750610358565b8084848151811061033e57634e487b7160e01b600052603260045260246000fd5b602090810291909101015261035460018461138f565b9250505b80610362816113d5565b915050610264565b50909695505050505050565b60606101b46040518060400160405280600681526020016539b2b63632b960d11b815250610ba5565b60006103a9610f2f565b600082116103fe5760405162461bcd60e51b815260206004820152601c60248201527f5072696365206d757374206265206174206c656173742031207765690000000060448201526064015b60405180910390fd5b600554341461045b5760405162461bcd60e51b8152602060048201526024808201527f5072696365206d75737420626520657175616c20746f206c697374696e6720706044820152637269636560e01b60648201526084016103f5565b610469600180546001019055565b600061047460015490565b60405163867d339760e01b8152600481018690529091506000906001600160a01b0387169063867d33979060240160206040518083038186803b1580156104ba57600080fd5b505afa1580156104ce573d6000803e3d6000fd5b505050506040513d601f19601f820116820180604052508101906104f291906110e0565b9050604051806101200160405280838152602001876001600160a01b03168152602001868152602001826001600160a01b03168152602001336001600160a01b0316815260200160006001600160a01b0316815260200185815260200160001515815260200160001515815250600660008481526020019081526020016000206000820151816000015560208201518160010160006101000a8154816001600160a01b0302191690836001600160a01b031602179055506040820151816002015560608201518160030160006101000a8154816001600160a01b0302191690836001600160a01b0316021790555060808201518160040160006101000a8154816001600160a01b0302191690836001600160a01b0316021790555060a08201518160050160006101000a8154816001600160a01b0302191690836001600160a01b0316021790555060c0820151816006015560e08201518160070160006101000a81548160ff0219169083151502179055506101008201518160070160016101000a81548160ff021916908315150217905550905050856001600160a01b03166323b872dd3330886040518463ffffffff1660e01b81526004016106d7939291906001600160a01b039384168152919092166020820152604081019190915260600190565b600060405180830381600087803b1580156106f157600080fd5b505af1158015610705573d6000803e3d6000fd5b5050604080516001600160a01b0385811682523360208301526000828401819052606083018a90526080830181905260a08301529151899450918a16925085917fa3b15201f5409f14cce6233dc60972278c313ff3ddbdee57ff092c0e953135269181900360c00190a450905061077c6001600055565b9392505050565b61078b611094565b60008061079760015490565b9050805b801561085b576000818152600660208181526040928390208351610120810185528154815260018201546001600160a01b03908116938201939093526002820154948101859052600382015483166060820152600482015483166080820152600582015490921660a08301529182015460c082015260079091015460ff808216151560e0840152610100918290041615159082015290861461083d5750610849565b95600195509350505050565b80610853816113be565b91505061079b565b50610864611094565b946000945092505050565b610877610f2f565b600081815260066020526040902060020154806108d65760405162461bcd60e51b815260206004820152601860248201527f4d61726b6574206974656d2068617320746f206578697374000000000000000060448201526064016103f5565b6000828152600660205260409020600401546001600160a01b031633146109385760405162461bcd60e51b81526020600482015260166024820152752cb7ba9030b932903737ba103a34329039b2b63632b960511b60448201526064016103f5565b6040516323b872dd60e01b8152306004820152336024820152604481018290526001600160a01b038416906323b872dd90606401600060405180830381600087803b15801561098657600080fd5b505af115801561099a573d6000803e3d6000fd5b50505060008381526006602052604090206005810180546001600160a01b03191633179055600701805461ff001916610100179055506109de600380546001019055565b506109e96001600055565b5050565b6109f5610f2f565b600081815260066020819052604090912090810154600290910154348214610a7b5760405162461bcd60e51b815260206004820152603360248201527f506c65617365207375626d6974207468652061736b696e6720707269636520696044820152726e206f7264657220746f20636f6e74696e756560681b60648201526084016103f5565b6000838152600660205260408082206005810180546001600160a01b0319163317905560078101805460ff191660011790556004015490516001600160a01b0391909116913480156108fc02929091818181858888f19350505050158015610ae7573d6000803e3d6000fd5b506040516323b872dd60e01b8152306004820152336024820152604481018290526001600160a01b038516906323b872dd90606401600060405180830381600087803b158015610b3657600080fd5b505af1158015610b4a573d6000803e3d6000fd5b50505050610b5c600280546001019055565b6004546005546040516001600160a01b039092169181156108fc0291906000818181858888f19350505050158015610b98573d6000803e3d6000fd5b5050506109e96001600055565b6060610bcf826040518060400160405280600681526020016539b2b63632b960d11b815250610f89565b80610bfc5750610bfc826040518060400160405280600581526020016437bbb732b960d91b815250610f89565b610c185760405162461bcd60e51b81526004016103f59061132b565b6000610c2360015490565b905060008060005b83811015610d1e576000600681610c4384600161138f565b8152602080820192909252604090810160009081208251610120810184528154815260018201546001600160a01b0390811695820195909552600282015493810193909352600381015484166060840152600481015484166080840152600581015490931660a0830152600683015460c0830152600783015460ff808216151560e08501526101009182900416151590830152919250610ce39089610fe2565b90506001600160a01b0381163314610cfc575050610d0c565b610d0760018661138f565b945050505b80610d16816113d5565b915050610c2b565b5060008267ffffffffffffffff811115610d4857634e487b7160e01b600052604160045260246000fd5b604051908082528060200260200182016040528015610d8157816020015b610d6e611094565b815260200190600190039081610d665790505b50905060005b84811015610f25576000600681610d9f84600161138f565b8152602080820192909252604090810160009081208251610120810184528154815260018201546001600160a01b0390811695820195909552600282015493810193909352600381015484166060840152600481015484166080840152600581015490931660a0830152600683015460c0830152600783015460ff808216151560e08501526101009182900416151590830152919250610e3f908a610fe2565b90506001600160a01b0381163314610e58575050610f13565b60408051610120810182528354815260018401546001600160a01b039081166020830152600285015492820192909252600384015482166060820152600484015482166080820152600584015490911660a0820152600683015460c0820152600783015460ff808216151560e084015261010091829004161515908201528451859087908110610ef857634e487b7160e01b600052603260045260246000fd5b6020908102919091010152610f0e60018661138f565b945050505b80610f1d816113d5565b915050610d87565b5095945050505050565b60026000541415610f825760405162461bcd60e51b815260206004820152601f60248201527f5265656e7472616e637947756172643a207265656e7472616e742063616c6c0060448201526064016103f5565b6002600055565b600081604051602001610f9c91906112af565b6040516020818303038152906040528051906020012083604051602001610fc391906112af565b6040516020818303038152906040528051906020012014905092915050565b600061100c826040518060400160405280600681526020016539b2b63632b960d11b815250610f89565b806110395750611039826040518060400160405280600581526020016437bbb732b960d91b815250610f89565b6110555760405162461bcd60e51b81526004016103f59061132b565b61107d826040518060400160405280600681526020016539b2b63632b960d11b815250610f89565b61108b578260a0015161077c565b50506080015190565b6040805161012081018252600080825260208201819052918101829052606081018290526080810182905260a0810182905260c0810182905260e0810182905261010081019190915290565b6000602082840312156110f1578081fd5b815161077c8161141c565b6000806040838503121561110e578081fd5b82356111198161141c565b946020939093013593505050565b60008060006060848603121561113b578081fd5b83356111468161141c565b95602085013595506040909401359392505050565b60006020828403121561116c578081fd5b813567ffffffffffffffff80821115611183578283fd5b818401915084601f830112611196578283fd5b8135818111156111a8576111a8611406565b604051601f8201601f19908116603f011681019083821181831017156111d0576111d0611406565b816040528281528760208487010111156111e8578586fd5b826020860160208301379182016020019490945295945050505050565b600060208284031215611216578081fd5b5035919050565b80518252602081015160018060a01b038082166020850152604083015160408501528060608401511660608501525050608081015161126760808401826001600160a01b03169052565b5060a081015161128260a08401826001600160a01b03169052565b5060c081015160c083015260e08101516112a060e084018215159052565b50610100908101511515910152565b60008251815b818110156112cf57602081860181015185830152016112b5565b818111156112dd5782828501525b509190910192915050565b6020808252825182820181905260009190848201906040850190845b8181101561036a5761131783855161121d565b928401926101209290920191600101611304565b60208082526025908201527f506172616d65746572206d757374206265202773656c6c657227206f7220276f604082015264776e65722760d81b606082015260800190565b610140810161137f828561121d565b8215156101208301529392505050565b600082198211156113a2576113a26113f0565b500190565b6000828210156113b9576113b96113f0565b500390565b6000816113cd576113cd6113f0565b506000190190565b60006000198214156113e9576113e96113f0565b5060010190565b634e487b7160e01b600052601160045260246000fd5b634e487b7160e01b600052604160045260246000fd5b6001600160a01b038116811461143157600080fd5b5056fea26469706673582212202577bbde820e8ea3d1084fc8d2e4a4b87fc7a9f043ea0970d3e1f23974eaa04364736f6c63430008040033",
  "linkReferences": {},
  "deployedLinkReferences": {}
}